{
  "contractName": "HibernationSociety",
  "abi": [
    {
      "inputs": [
        {
          "internalType": "string",
          "name": "baseURI",
          "type": "string"
        }
      ],
      "stateMutability": "nonpayable",
      "type": "constructor"
    },
    {
      "anonymous": false,
      "inputs": [
        {
          "indexed": true,
          "internalType": "address",
          "name": "owner",
          "type": "address"
        },
        {
          "indexed": true,
          "internalType": "address",
          "name": "approved",
          "type": "address"
        },
        {
          "indexed": true,
          "internalType": "uint256",
          "name": "tokenId",
          "type": "uint256"
        }
      ],
      "name": "Approval",
      "type": "event"
    },
    {
      "anonymous": false,
      "inputs": [
        {
          "indexed": true,
          "internalType": "address",
          "name": "owner",
          "type": "address"
        },
        {
          "indexed": true,
          "internalType": "address",
          "name": "operator",
          "type": "address"
        },
        {
          "indexed": false,
          "internalType": "bool",
          "name": "approved",
          "type": "bool"
        }
      ],
      "name": "ApprovalForAll",
      "type": "event"
    },
    {
      "anonymous": false,
      "inputs": [
        {
          "indexed": true,
          "internalType": "uint256",
          "name": "id",
          "type": "uint256"
        }
      ],
      "name": "CreateHibernationBear",
      "type": "event"
    },
    {
      "anonymous": false,
      "inputs": [
        {
          "indexed": true,
          "internalType": "address",
          "name": "previousOwner",
          "type": "address"
        },
        {
          "indexed": true,
          "internalType": "address",
          "name": "newOwner",
          "type": "address"
        }
      ],
      "name": "OwnershipTransferred",
      "type": "event"
    },
    {
      "anonymous": false,
      "inputs": [
        {
          "indexed": true,
          "internalType": "address",
          "name": "from",
          "type": "address"
        },
        {
          "indexed": true,
          "internalType": "address",
          "name": "to",
          "type": "address"
        },
        {
          "indexed": true,
          "internalType": "uint256",
          "name": "tokenId",
          "type": "uint256"
        }
      ],
      "name": "Transfer",
      "type": "event"
    },
    {
      "inputs": [],
      "name": "LAUNCH_TIMESTAMP",
      "outputs": [
        {
          "internalType": "uint256",
          "name": "",
          "type": "uint256"
        }
      ],
      "stateMutability": "view",
      "type": "function",
      "constant": true
    },
    {
      "inputs": [],
      "name": "MAX_BY_MINT",
      "outputs": [
        {
          "internalType": "uint256",
          "name": "",
          "type": "uint256"
        }
      ],
      "stateMutability": "view",
      "type": "function",
      "constant": true
    },
    {
      "inputs": [],
      "name": "MAX_BY_MINT_WHITELIST",
      "outputs": [
        {
          "internalType": "uint256",
          "name": "",
          "type": "uint256"
        }
      ],
      "stateMutability": "view",
      "type": "function",
      "constant": true
    },
    {
      "inputs": [],
      "name": "MAX_ELEMENTS",
      "outputs": [
        {
          "internalType": "uint256",
          "name": "",
          "type": "uint256"
        }
      ],
      "stateMutability": "view",
      "type": "function",
      "constant": true
    },
    {
      "inputs": [],
      "name": "MAX_RESERVE_COUNT",
      "outputs": [
        {
          "internalType": "uint256",
          "name": "",
          "type": "uint256"
        }
      ],
      "stateMutability": "view",
      "type": "function",
      "constant": true
    },
    {
      "inputs": [],
      "name": "MAX_WALLET",
      "outputs": [
        {
          "internalType": "uint256",
          "name": "",
          "type": "uint256"
        }
      ],
      "stateMutability": "view",
      "type": "function",
      "constant": true
    },
    {
      "inputs": [],
      "name": "PRESALE_PRICE",
      "outputs": [
        {
          "internalType": "uint256",
          "name": "",
          "type": "uint256"
        }
      ],
      "stateMutability": "view",
      "type": "function",
      "constant": true
    },
    {
      "inputs": [],
      "name": "PRICE",
      "outputs": [
        {
          "internalType": "uint256",
          "name": "",
          "type": "uint256"
        }
      ],
      "stateMutability": "view",
      "type": "function",
      "constant": true
    },
    {
      "inputs": [
        {
          "internalType": "address",
          "name": "to",
          "type": "address"
        },
        {
          "internalType": "uint256",
          "name": "tokenId",
          "type": "uint256"
        }
      ],
      "name": "approve",
      "outputs": [],
      "stateMutability": "nonpayable",
      "type": "function"
    },
    {
      "inputs": [
        {
          "internalType": "address",
          "name": "owner",
          "type": "address"
        }
      ],
      "name": "balanceOf",
      "outputs": [
        {
          "internalType": "uint256",
          "name": "",
          "type": "uint256"
        }
      ],
      "stateMutability": "view",
      "type": "function",
      "constant": true
    },
    {
      "inputs": [],
      "name": "baseTokenURI",
      "outputs": [
        {
          "internalType": "string",
          "name": "",
          "type": "string"
        }
      ],
      "stateMutability": "view",
      "type": "function",
      "constant": true
    },
    {
      "inputs": [
        {
          "internalType": "uint256",
          "name": "tokenId",
          "type": "uint256"
        }
      ],
      "name": "getApproved",
      "outputs": [
        {
          "internalType": "address",
          "name": "",
          "type": "address"
        }
      ],
      "stateMutability": "view",
      "type": "function",
      "constant": true
    },
    {
      "inputs": [
        {
          "internalType": "address",
          "name": "owner",
          "type": "address"
        },
        {
          "internalType": "address",
          "name": "operator",
          "type": "address"
        }
      ],
      "name": "isApprovedForAll",
      "outputs": [
        {
          "internalType": "bool",
          "name": "",
          "type": "bool"
        }
      ],
      "stateMutability": "view",
      "type": "function",
      "constant": true
    },
    {
      "inputs": [],
      "name": "isPresaleOpen",
      "outputs": [
        {
          "internalType": "bool",
          "name": "",
          "type": "bool"
        }
      ],
      "stateMutability": "view",
      "type": "function",
      "constant": true
    },
    {
      "inputs": [],
      "name": "name",
      "outputs": [
        {
          "internalType": "string",
          "name": "",
          "type": "string"
        }
      ],
      "stateMutability": "view",
      "type": "function",
      "constant": true
    },
    {
      "inputs": [],
      "name": "owner",
      "outputs": [
        {
          "internalType": "address",
          "name": "",
          "type": "address"
        }
      ],
      "stateMutability": "view",
      "type": "function",
      "constant": true
    },
    {
      "inputs": [
        {
          "internalType": "uint256",
          "name": "tokenId",
          "type": "uint256"
        }
      ],
      "name": "ownerOf",
      "outputs": [
        {
          "internalType": "address",
          "name": "",
          "type": "address"
        }
      ],
      "stateMutability": "view",
      "type": "function",
      "constant": true
    },
    {
      "inputs": [],
      "name": "renounceOwnership",
      "outputs": [],
      "stateMutability": "nonpayable",
      "type": "function"
    },
    {
      "inputs": [
        {
          "internalType": "address",
          "name": "from",
          "type": "address"
        },
        {
          "internalType": "address",
          "name": "to",
          "type": "address"
        },
        {
          "internalType": "uint256",
          "name": "tokenId",
          "type": "uint256"
        }
      ],
      "name": "safeTransferFrom",
      "outputs": [],
      "stateMutability": "nonpayable",
      "type": "function"
    },
    {
      "inputs": [
        {
          "internalType": "address",
          "name": "from",
          "type": "address"
        },
        {
          "internalType": "address",
          "name": "to",
          "type": "address"
        },
        {
          "internalType": "uint256",
          "name": "tokenId",
          "type": "uint256"
        },
        {
          "internalType": "bytes",
          "name": "_data",
          "type": "bytes"
        }
      ],
      "name": "safeTransferFrom",
      "outputs": [],
      "stateMutability": "nonpayable",
      "type": "function"
    },
    {
      "inputs": [
        {
          "internalType": "address",
          "name": "operator",
          "type": "address"
        },
        {
          "internalType": "bool",
          "name": "approved",
          "type": "bool"
        }
      ],
      "name": "setApprovalForAll",
      "outputs": [],
      "stateMutability": "nonpayable",
      "type": "function"
    },
    {
      "inputs": [
        {
          "internalType": "bytes4",
          "name": "interfaceId",
          "type": "bytes4"
        }
      ],
      "name": "supportsInterface",
      "outputs": [
        {
          "internalType": "bool",
          "name": "",
          "type": "bool"
        }
      ],
      "stateMutability": "view",
      "type": "function",
      "constant": true
    },
    {
      "inputs": [],
      "name": "symbol",
      "outputs": [
        {
          "internalType": "string",
          "name": "",
          "type": "string"
        }
      ],
      "stateMutability": "view",
      "type": "function",
      "constant": true
    },
    {
      "inputs": [
        {
          "internalType": "uint256",
          "name": "index",
          "type": "uint256"
        }
      ],
      "name": "tokenByIndex",
      "outputs": [
        {
          "internalType": "uint256",
          "name": "",
          "type": "uint256"
        }
      ],
      "stateMutability": "view",
      "type": "function",
      "constant": true
    },
    {
      "inputs": [
        {
          "internalType": "address",
          "name": "owner",
          "type": "address"
        },
        {
          "internalType": "uint256",
          "name": "index",
          "type": "uint256"
        }
      ],
      "name": "tokenOfOwnerByIndex",
      "outputs": [
        {
          "internalType": "uint256",
          "name": "",
          "type": "uint256"
        }
      ],
      "stateMutability": "view",
      "type": "function",
      "constant": true
    },
    {
      "inputs": [],
      "name": "totalSupply",
      "outputs": [
        {
          "internalType": "uint256",
          "name": "",
          "type": "uint256"
        }
      ],
      "stateMutability": "view",
      "type": "function",
      "constant": true
    },
    {
      "inputs": [
        {
          "internalType": "address",
          "name": "from",
          "type": "address"
        },
        {
          "internalType": "address",
          "name": "to",
          "type": "address"
        },
        {
          "internalType": "uint256",
          "name": "tokenId",
          "type": "uint256"
        }
      ],
      "name": "transferFrom",
      "outputs": [],
      "stateMutability": "nonpayable",
      "type": "function"
    },
    {
      "inputs": [
        {
          "internalType": "address",
          "name": "newOwner",
          "type": "address"
        }
      ],
      "name": "transferOwnership",
      "outputs": [],
      "stateMutability": "nonpayable",
      "type": "function"
    },
    {
      "inputs": [],
      "name": "totalMint",
      "outputs": [
        {
          "internalType": "uint256",
          "name": "",
          "type": "uint256"
        }
      ],
      "stateMutability": "view",
      "type": "function",
      "constant": true
    },
    {
      "inputs": [],
      "name": "reserveTokens",
      "outputs": [],
      "stateMutability": "nonpayable",
      "type": "function"
    },
    {
      "inputs": [
        {
          "internalType": "uint256",
          "name": "_count",
          "type": "uint256"
        }
      ],
      "name": "mint",
      "outputs": [],
      "stateMutability": "payable",
      "type": "function",
      "payable": true
    },
    {
      "inputs": [
        {
          "internalType": "uint256",
          "name": "_count",
          "type": "uint256"
        }
      ],
      "name": "presaleMint",
      "outputs": [],
      "stateMutability": "payable",
      "type": "function",
      "payable": true
    },
    {
      "inputs": [
        {
          "internalType": "address[]",
          "name": "winners",
          "type": "address[]"
        }
      ],
      "name": "airdropNFT",
      "outputs": [],
      "stateMutability": "nonpayable",
      "type": "function"
    },
    {
      "inputs": [
        {
          "internalType": "uint256",
          "name": "_count",
          "type": "uint256"
        }
      ],
      "name": "salePrice",
      "outputs": [
        {
          "internalType": "uint256",
          "name": "",
          "type": "uint256"
        }
      ],
      "stateMutability": "pure",
      "type": "function",
      "constant": true
    },
    {
      "inputs": [
        {
          "internalType": "uint256",
          "name": "_count",
          "type": "uint256"
        }
      ],
      "name": "presalePrice",
      "outputs": [
        {
          "internalType": "uint256",
          "name": "",
          "type": "uint256"
        }
      ],
      "stateMutability": "pure",
      "type": "function",
      "constant": true
    },
    {
      "inputs": [
        {
          "internalType": "string",
          "name": "baseURI",
          "type": "string"
        }
      ],
      "name": "setBaseURI",
      "outputs": [],
      "stateMutability": "nonpayable",
      "type": "function"
    },
    {
      "inputs": [
        {
          "internalType": "uint256",
          "name": "tokenId",
          "type": "uint256"
        }
      ],
      "name": "tokenURI",
      "outputs": [
        {
          "internalType": "string",
          "name": "",
          "type": "string"
        }
      ],
      "stateMutability": "view",
      "type": "function",
      "constant": true
    },
    {
      "inputs": [
        {
          "internalType": "address",
          "name": "_owner",
          "type": "address"
        }
      ],
      "name": "walletOfOwner",
      "outputs": [
        {
          "internalType": "uint256[]",
          "name": "",
          "type": "uint256[]"
        }
      ],
      "stateMutability": "view",
      "type": "function",
      "constant": true
    },
    {
      "inputs": [
        {
          "internalType": "bool",
          "name": "_isPresaleOpen",
          "type": "bool"
        }
      ],
      "name": "setPresaleOpen",
      "outputs": [],
      "stateMutability": "nonpayable",
      "type": "function"
    },
    {
      "inputs": [
        {
          "internalType": "address[]",
          "name": "addresses",
          "type": "address[]"
        }
      ],
      "name": "addToWhiteList",
      "outputs": [],
      "stateMutability": "nonpayable",
      "type": "function"
    },
    {
      "inputs": [
        {
          "internalType": "address",
          "name": "addr",
          "type": "address"
        }
      ],
      "name": "addressInWhitelist",
      "outputs": [
        {
          "internalType": "bool",
          "name": "",
          "type": "bool"
        }
      ],
      "stateMutability": "view",
      "type": "function",
      "constant": true
    },
    {
      "inputs": [
        {
          "internalType": "address[]",
          "name": "addresses",
          "type": "address[]"
        }
      ],
      "name": "removeFromWhiteList",
      "outputs": [],
      "stateMutability": "nonpayable",
      "type": "function"
    },
    {
      "inputs": [
        {
          "internalType": "uint256",
          "name": "_count",
          "type": "uint256"
        }
      ],
      "name": "setReserveAtATime",
      "outputs": [],
      "stateMutability": "nonpayable",
      "type": "function"
    },
    {
      "inputs": [],
      "name": "withdrawAll",
      "outputs": [],
      "stateMutability": "nonpayable",
      "type": "function"
    },
    {
      "inputs": [],
      "name": "setTestLaunchTime",
      "outputs": [],
      "stateMutability": "nonpayable",
      "type": "function"
    }
  ],
  "bytecode": "0x60806040526361f3ccb0600c556000600d60006101000a81548160ff021916908315150217905550600060105560286011553480156200003e57600080fd5b5060405162005d2c38038062005d2c83398181016040528101906200006491906200052c565b6040518060400160405280601381526020017f48696265726e6174696f6e20536f6369657479000000000000000000000000008152506040518060400160405280600481526020017f48424e53000000000000000000000000000000000000000000000000000000008152508160009080519060200190620000e8929190620002df565b50806001908051906020019062000101929190620002df565b50505062000124620001186200013c60201b60201c565b6200014460201b60201c565b62000135816200020a60201b60201c565b5062000665565b600033905090565b6000600a60009054906101000a900473ffffffffffffffffffffffffffffffffffffffff16905081600a60006101000a81548173ffffffffffffffffffffffffffffffffffffffff021916908373ffffffffffffffffffffffffffffffffffffffff1602179055508173ffffffffffffffffffffffffffffffffffffffff168173ffffffffffffffffffffffffffffffffffffffff167f8be0079c531659141344cd1fd0a4f28419497f9722a3daafe3b4186f6b6457e060405160405180910390a35050565b6200021a6200013c60201b60201c565b73ffffffffffffffffffffffffffffffffffffffff1662000240620002b560201b60201c565b73ffffffffffffffffffffffffffffffffffffffff161462000299576040517f08c379a00000000000000000000000000000000000000000000000000000000081526004016200029090620005de565b60405180910390fd5b8060129080519060200190620002b1929190620002df565b5050565b6000600a60009054906101000a900473ffffffffffffffffffffffffffffffffffffffff16905090565b828054620002ed906200062f565b90600052602060002090601f0160209004810192826200031157600085556200035d565b82601f106200032c57805160ff19168380011785556200035d565b828001600101855582156200035d579182015b828111156200035c5782518255916020019190600101906200033f565b5b5090506200036c919062000370565b5090565b5b808211156200038b57600081600090555060010162000371565b5090565b6000604051905090565b600080fd5b600080fd5b600080fd5b600080fd5b6000601f19601f8301169050919050565b7f4e487b7100000000000000000000000000000000000000000000000000000000600052604160045260246000fd5b620003f882620003ad565b810181811067ffffffffffffffff821117156200041a5762000419620003be565b5b80604052505050565b60006200042f6200038f565b90506200043d8282620003ed565b919050565b600067ffffffffffffffff82111562000460576200045f620003be565b5b6200046b82620003ad565b9050602081019050919050565b60005b83811015620004985780820151818401526020810190506200047b565b83811115620004a8576000848401525b50505050565b6000620004c5620004bf8462000442565b62000423565b905082815260208101848484011115620004e457620004e3620003a8565b5b620004f184828562000478565b509392505050565b600082601f830112620005115762000510620003a3565b5b815162000523848260208601620004ae565b91505092915050565b60006020828403121562000545576200054462000399565b5b600082015167ffffffffffffffff8111156200056657620005656200039e565b5b6200057484828501620004f9565b91505092915050565b600082825260208201905092915050565b7f4f776e61626c653a2063616c6c6572206973206e6f7420746865206f776e6572600082015250565b6000620005c66020836200057d565b9150620005d3826200058e565b602082019050919050565b60006020820190508181036000830152620005f981620005b7565b9050919050565b7f4e487b7100000000000000000000000000000000000000000000000000000000600052602260045260246000fd5b600060028204905060018216806200064857607f821691505b602082108114156200065f576200065e62000600565b5b50919050565b6156b780620006756000396000f3fe6080604052600436106102725760003560e01c8063740d73f31161014f578063b88d4fde116100c1578063e985e9c51161007a578063e985e9c514610938578063eb4f847b14610975578063edf85f51146109a0578063f2fde38b146109dd578063f5b9662114610a06578063f6c9d9e314610a2f57610272565b8063b88d4fde14610835578063c87b56dd1461085e578063c9b298f11461089b578063d547cfb7146108b7578063df7787a4146108e2578063e954f41d1461090d57610272565b80638da5cb5b116101135780638da5cb5b1461075a57806395d89b41146107855780639a854fde146107b0578063a0712d68146107c7578063a22cb465146107e3578063b11560c51461080c57610272565b8063740d73f31461069957806376500c17146106c2578063853828b6146106ed5780638ad5de28146107045780638d859f3e1461072f57610272565b806342842e0e116101e85780635bc00f41116101ac5780635bc00f41146105895780635dc0e835146105b257806362dc6e21146105dd5780636352211e1461060857806370a0823114610645578063715018a61461068257610272565b806342842e0e14610492578063438b6300146104bb5780634f6ccce7146104f857806355f804b31461053557806359a7715a1461055e57610272565b80631875d21a1161023a5780631875d21a1461037057806323b872dd146103ad57806327ac36c4146103d65780632f745c59146103ed5780633502a7161461042a5780633f5dc6e51461045557610272565b806301ffc9a71461027757806306fdde03146102b4578063081812fc146102df578063095ea7b31461031c57806318160ddd14610345575b600080fd5b34801561028357600080fd5b5061029e600480360381019061029991906139f7565b610a58565b6040516102ab9190613a3f565b60405180910390f35b3480156102c057600080fd5b506102c9610ad2565b6040516102d69190613af3565b60405180910390f35b3480156102eb57600080fd5b5061030660048036038101906103019190613b4b565b610b64565b6040516103139190613bb9565b60405180910390f35b34801561032857600080fd5b50610343600480360381019061033e9190613c00565b610be9565b005b34801561035157600080fd5b5061035a610d01565b6040516103679190613c4f565b60405180910390f35b34801561037c57600080fd5b5061039760048036038101906103929190613b4b565b610d0e565b6040516103a49190613c4f565b60405180910390f35b3480156103b957600080fd5b506103d460048036038101906103cf9190613c6a565b610d31565b005b3480156103e257600080fd5b506103eb610d91565b005b3480156103f957600080fd5b50610414600480360381019061040f9190613c00565b610ea4565b6040516104219190613c4f565b60405180910390f35b34801561043657600080fd5b5061043f610f49565b60405161044c9190613c4f565b60405180910390f35b34801561046157600080fd5b5061047c60048036038101906104779190613cbd565b610f4f565b6040516104899190613a3f565b60405180910390f35b34801561049e57600080fd5b506104b960048036038101906104b49190613c6a565b610fa5565b005b3480156104c757600080fd5b506104e260048036038101906104dd9190613cbd565b610fc5565b6040516104ef9190613da8565b60405180910390f35b34801561050457600080fd5b5061051f600480360381019061051a9190613b4b565b611073565b60405161052c9190613c4f565b60405180910390f35b34801561054157600080fd5b5061055c60048036038101906105579190613eff565b6110e4565b005b34801561056a57600080fd5b5061057361117a565b6040516105809190613c4f565b60405180910390f35b34801561059557600080fd5b506105b060048036038101906105ab9190614010565b611189565b005b3480156105be57600080fd5b506105c761128f565b6040516105d49190613c4f565b60405180910390f35b3480156105e957600080fd5b506105f2611294565b6040516105ff9190613c4f565b60405180910390f35b34801561061457600080fd5b5061062f600480360381019061062a9190613b4b565b61129f565b60405161063c9190613bb9565b60405180910390f35b34801561065157600080fd5b5061066c60048036038101906106679190613cbd565b611351565b6040516106799190613c4f565b60405180910390f35b34801561068e57600080fd5b50610697611409565b005b3480156106a557600080fd5b506106c060048036038101906106bb91906140b4565b611491565b005b3480156106ce57600080fd5b506106d7611727565b6040516106e49190613c4f565b60405180910390f35b3480156106f957600080fd5b5061070261172c565b005b34801561071057600080fd5b506107196117ce565b6040516107269190613c4f565b60405180910390f35b34801561073b57600080fd5b506107446117d3565b6040516107519190613c4f565b60405180910390f35b34801561076657600080fd5b5061076f6117df565b60405161077c9190613bb9565b60405180910390f35b34801561079157600080fd5b5061079a611809565b6040516107a79190613af3565b60405180910390f35b3480156107bc57600080fd5b506107c561189b565b005b6107e160048036038101906107dc9190613b4b565b61192c565b005b3480156107ef57600080fd5b5061080a6004803603810190610805919061412d565b611b85565b005b34801561081857600080fd5b50610833600480360381019061082e91906140b4565b611d06565b005b34801561084157600080fd5b5061085c6004803603810190610857919061420e565b611ebe565b005b34801561086a57600080fd5b5061088560048036038101906108809190613b4b565b611f20565b6040516108929190613af3565b60405180910390f35b6108b560048036038101906108b09190613b4b565b61200a565b005b3480156108c357600080fd5b506108cc612395565b6040516108d99190613af3565b60405180910390f35b3480156108ee57600080fd5b506108f7612423565b6040516109049190613c4f565b60405180910390f35b34801561091957600080fd5b50610922612428565b60405161092f9190613c4f565b60405180910390f35b34801561094457600080fd5b5061095f600480360381019061095a9190614291565b61242e565b60405161096c9190613a3f565b60405180910390f35b34801561098157600080fd5b5061098a6124c2565b6040516109979190613a3f565b60405180910390f35b3480156109ac57600080fd5b506109c760048036038101906109c29190613b4b565b6124d5565b6040516109d49190613c4f565b60405180910390f35b3480156109e957600080fd5b50610a0460048036038101906109ff9190613cbd565b6124f9565b005b348015610a1257600080fd5b50610a2d6004803603810190610a2891906142d1565b6125f1565b005b348015610a3b57600080fd5b50610a566004803603810190610a519190613b4b565b61268a565b005b60007f780e9d63000000000000000000000000000000000000000000000000000000007bffffffffffffffffffffffffffffffffffffffffffffffffffffffff1916827bffffffffffffffffffffffffffffffffffffffffffffffffffffffff19161480610acb5750610aca82612710565b5b9050919050565b606060008054610ae19061432d565b80601f0160208091040260200160405190810160405280929190818152602001828054610b0d9061432d565b8015610b5a5780601f10610b2f57610100808354040283529160200191610b5a565b820191906000526020600020905b815481529060010190602001808311610b3d57829003601f168201915b5050505050905090565b6000610b6f826127f2565b610bae576040517f08c379a0000000000000000000000000000000000000000000000000000000008152600401610ba5906143d1565b60405180910390fd5b6004600083815260200190815260200160002060009054906101000a900473ffffffffffffffffffffffffffffffffffffffff169050919050565b6000610bf48261129f565b90508073ffffffffffffffffffffffffffffffffffffffff168373ffffffffffffffffffffffffffffffffffffffff161415610c65576040517f08c379a0000000000000000000000000000000000000000000000000000000008152600401610c5c90614463565b60405180910390fd5b8073ffffffffffffffffffffffffffffffffffffffff16610c8461285e565b73ffffffffffffffffffffffffffffffffffffffff161480610cb35750610cb281610cad61285e565b61242e565b5b610cf2576040517f08c379a0000000000000000000000000000000000000000000000000000000008152600401610ce9906144f5565b60405180910390fd5b610cfc8383612866565b505050565b6000600880549050905090565b6000610d2a8266e6ed27d666800061291f90919063ffffffff16565b9050919050565b610d42610d3c61285e565b82612935565b610d81576040517f08c379a0000000000000000000000000000000000000000000000000000000008152600401610d7890614587565b60405180910390fd5b610d8c838383612a13565b505050565b610d9961285e565b73ffffffffffffffffffffffffffffffffffffffff16610db76117df565b73ffffffffffffffffffffffffffffffffffffffff1614610e0d576040517f08c379a0000000000000000000000000000000000000000000000000000000008152600401610e04906145f3565b60405180910390fd5b60c8601154601054610e1f9190614642565b1115610e60576040517f08c379a0000000000000000000000000000000000000000000000000000000008152600401610e57906146e4565b60405180910390fd5b60005b601154811015610ea15760106000815480929190610e8090614704565b9190505550610e8e33612c6f565b8080610e9990614704565b915050610e63565b50565b6000610eaf83611351565b8210610ef0576040517f08c379a0000000000000000000000000000000000000000000000000000000008152600401610ee7906147bf565b60405180910390fd5b600660008473ffffffffffffffffffffffffffffffffffffffff1673ffffffffffffffffffffffffffffffffffffffff168152602001908152602001600020600083815260200190815260200160002054905092915050565b611b5881565b6000600e60008373ffffffffffffffffffffffffffffffffffffffff1673ffffffffffffffffffffffffffffffffffffffff16815260200190815260200160002060009054906101000a900460ff169050919050565b610fc083838360405180602001604052806000815250611ebe565b505050565b60606000610fd283611351565b905060008167ffffffffffffffff811115610ff057610fef613dd4565b5b60405190808252806020026020018201604052801561101e5781602001602082028036833780820191505090505b50905060005b82811015611068576110368582610ea4565b828281518110611049576110486147df565b5b602002602001018181525050808061106090614704565b915050611024565b508092505050919050565b600061107d610d01565b82106110be576040517f08c379a00000000000000000000000000000000000000000000000000000000081526004016110b590614880565b60405180910390fd5b600882815481106110d2576110d16147df565b5b90600052602060002001549050919050565b6110ec61285e565b73ffffffffffffffffffffffffffffffffffffffff1661110a6117df565b73ffffffffffffffffffffffffffffffffffffffff1614611160576040517f08c379a0000000000000000000000000000000000000000000000000000000008152600401611157906145f3565b60405180910390fd5b80601290805190602001906111769291906138e8565b5050565b6000611184612cc0565b905090565b61119161285e565b73ffffffffffffffffffffffffffffffffffffffff166111af6117df565b73ffffffffffffffffffffffffffffffffffffffff1614611205576040517f08c379a00000000000000000000000000000000000000000000000000000000081526004016111fc906145f3565b60405180910390fd5b6000815111611249576040517f08c379a000000000000000000000000000000000000000000000000000000000815260040161124090614912565b60405180910390fd5b60005b815181101561128b5761127882828151811061126b5761126a6147df565b5b6020026020010151612c6f565b808061128390614704565b91505061124c565b5050565b600581565b66e6ed27d666800081565b6000806002600084815260200190815260200160002060009054906101000a900473ffffffffffffffffffffffffffffffffffffffff169050600073ffffffffffffffffffffffffffffffffffffffff168173ffffffffffffffffffffffffffffffffffffffff161415611348576040517f08c379a000000000000000000000000000000000000000000000000000000000815260040161133f906149a4565b60405180910390fd5b80915050919050565b60008073ffffffffffffffffffffffffffffffffffffffff168273ffffffffffffffffffffffffffffffffffffffff1614156113c2576040517f08c379a00000000000000000000000000000000000000000000000000000000081526004016113b990614a36565b60405180910390fd5b600360008373ffffffffffffffffffffffffffffffffffffffff1673ffffffffffffffffffffffffffffffffffffffff168152602001908152602001600020549050919050565b61141161285e565b73ffffffffffffffffffffffffffffffffffffffff1661142f6117df565b73ffffffffffffffffffffffffffffffffffffffff1614611485576040517f08c379a000000000000000000000000000000000000000000000000000000000815260040161147c906145f3565b60405180910390fd5b61148f6000612cd1565b565b61149961285e565b73ffffffffffffffffffffffffffffffffffffffff166114b76117df565b73ffffffffffffffffffffffffffffffffffffffff161461150d576040517f08c379a0000000000000000000000000000000000000000000000000000000008152600401611504906145f3565b60405180910390fd5b60005b8282905081101561172257600073ffffffffffffffffffffffffffffffffffffffff16838383818110611546576115456147df565b5b905060200201602081019061155b9190613cbd565b73ffffffffffffffffffffffffffffffffffffffff1614156115b2576040517f08c379a00000000000000000000000000000000000000000000000000000000081526004016115a990614aa2565b60405180910390fd5b6001600e60008585858181106115cb576115ca6147df565b5b90506020020160208101906115e09190613cbd565b73ffffffffffffffffffffffffffffffffffffffff1673ffffffffffffffffffffffffffffffffffffffff16815260200190815260200160002060006101000a81548160ff0219169083151502179055506000600f600085858581811061164a576116496147df565b5b905060200201602081019061165f9190613cbd565b73ffffffffffffffffffffffffffffffffffffffff1673ffffffffffffffffffffffffffffffffffffffff16815260200190815260200160002054116116a657600061170e565b600f60008484848181106116bd576116bc6147df565b5b90506020020160208101906116d29190613cbd565b73ffffffffffffffffffffffffffffffffffffffff1673ffffffffffffffffffffffffffffffffffffffff168152602001908152602001600020545b50808061171a90614704565b915050611510565b505050565b60c881565b61173461285e565b73ffffffffffffffffffffffffffffffffffffffff166117526117df565b73ffffffffffffffffffffffffffffffffffffffff16146117a8576040517f08c379a000000000000000000000000000000000000000000000000000000000815260040161179f906145f3565b60405180910390fd5b6000479050600081116117ba57600080fd5b6117cb6117c56117df565b82612d97565b50565b600581565b67011c37937e08000081565b6000600a60009054906101000a900473ffffffffffffffffffffffffffffffffffffffff16905090565b6060600180546118189061432d565b80601f01602080910402602001604051908101604052809291908181526020018280546118449061432d565b80156118915780601f1061186657610100808354040283529160200191611891565b820191906000526020600020905b81548152906001019060200180831161187457829003601f168201915b5050505050905090565b6118a361285e565b73ffffffffffffffffffffffffffffffffffffffff166118c16117df565b73ffffffffffffffffffffffffffffffffffffffff1614611917576040517f08c379a000000000000000000000000000000000000000000000000000000000815260040161190e906145f3565b60405180910390fd5b601e426119249190614642565b600c81905550565b6119346117df565b73ffffffffffffffffffffffffffffffffffffffff1661195261285e565b73ffffffffffffffffffffffffffffffffffffffff16146119b357600c544210156119b2576040517f08c379a00000000000000000000000000000000000000000000000000000000081526004016119a990614b0e565b60405180910390fd5b5b60006119bd612cc0565b9050611b5882826119ce9190614642565b1115611a0f576040517f08c379a0000000000000000000000000000000000000000000000000000000008152600401611a0690614b7a565b60405180910390fd5b611b58811115611a54576040517f08c379a0000000000000000000000000000000000000000000000000000000008152600401611a4b90614c0c565b60405180910390fd5b6005821115611a98576040517f08c379a0000000000000000000000000000000000000000000000000000000008152600401611a8f90614c78565b60405180910390fd5b600582611aab611aa661285e565b611351565b611ab59190614642565b1115611af6576040517f08c379a0000000000000000000000000000000000000000000000000000000008152600401611aed90614ce4565b60405180910390fd5b611aff826124d5565b341015611b41576040517f08c379a0000000000000000000000000000000000000000000000000000000008152600401611b3890614d50565b60405180910390fd5b60005b82811015611b6f57611b5c611b5761285e565b612c6f565b8080611b6790614704565b915050611b44565b50611b81611b7b6117df565b47612d97565b5050565b611b8d61285e565b73ffffffffffffffffffffffffffffffffffffffff168273ffffffffffffffffffffffffffffffffffffffff161415611bfb576040517f08c379a0000000000000000000000000000000000000000000000000000000008152600401611bf290614dbc565b60405180910390fd5b8060056000611c0861285e565b73ffffffffffffffffffffffffffffffffffffffff1673ffffffffffffffffffffffffffffffffffffffff16815260200190815260200160002060008473ffffffffffffffffffffffffffffffffffffffff1673ffffffffffffffffffffffffffffffffffffffff16815260200190815260200160002060006101000a81548160ff0219169083151502179055508173ffffffffffffffffffffffffffffffffffffffff16611cb561285e565b73ffffffffffffffffffffffffffffffffffffffff167f17307eab39ab6107e8899845ad3d59bd9653f200f220920489ca2b5937696c3183604051611cfa9190613a3f565b60405180910390a35050565b611d0e61285e565b73ffffffffffffffffffffffffffffffffffffffff16611d2c6117df565b73ffffffffffffffffffffffffffffffffffffffff1614611d82576040517f08c379a0000000000000000000000000000000000000000000000000000000008152600401611d79906145f3565b60405180910390fd5b60005b82829050811015611eb957600073ffffffffffffffffffffffffffffffffffffffff16838383818110611dbb57611dba6147df565b5b9050602002016020810190611dd09190613cbd565b73ffffffffffffffffffffffffffffffffffffffff161415611e27576040517f08c379a0000000000000000000000000000000000000000000000000000000008152600401611e1e90614aa2565b60405180910390fd5b6000600e6000858585818110611e4057611e3f6147df565b5b9050602002016020810190611e559190613cbd565b73ffffffffffffffffffffffffffffffffffffffff1673ffffffffffffffffffffffffffffffffffffffff16815260200190815260200160002060006101000a81548160ff0219169083151502179055508080611eb190614704565b915050611d85565b505050565b611ecf611ec961285e565b83612935565b611f0e576040517f08c379a0000000000000000000000000000000000000000000000000000000008152600401611f0590614587565b60405180910390fd5b611f1a84848484612de2565b50505050565b6060611f2b826127f2565b611f6a576040517f08c379a0000000000000000000000000000000000000000000000000000000008152600401611f6190614e4e565b60405180910390fd5b600082905060006040518060400160405280600581526020017f2e6a736f6e00000000000000000000000000000000000000000000000000000081525090506000611fb3612e3e565b90506000815111611fd35760405180602001604052806000815250612000565b80611fdd84612ed0565b83604051602001611ff093929190614eaa565b6040516020818303038152906040525b9350505050919050565b600d60009054906101000a900460ff16612059576040517f08c379a000000000000000000000000000000000000000000000000000000000815260040161205090614f27565b60405180910390fd5b600e60003373ffffffffffffffffffffffffffffffffffffffff1673ffffffffffffffffffffffffffffffffffffffff16815260200190815260200160002060009054906101000a900460ff166120e5576040517f08c379a00000000000000000000000000000000000000000000000000000000081526004016120dc90614f93565b60405180910390fd5b6005811115612129576040517f08c379a000000000000000000000000000000000000000000000000000000000815260040161212090614fff565b60405180910390fd5b600581600f60003373ffffffffffffffffffffffffffffffffffffffff1673ffffffffffffffffffffffffffffffffffffffff168152602001908152602001600020546121769190614642565b11156121b7576040517f08c379a00000000000000000000000000000000000000000000000000000000081526004016121ae9061506b565b60405180910390fd5b6005816121ca6121c561285e565b611351565b6121d49190614642565b1115612215576040517f08c379a000000000000000000000000000000000000000000000000000000000815260040161220c90614ce4565b60405180910390fd5b600061221f612cc0565b9050611b5882826122309190614642565b1115612271576040517f08c379a000000000000000000000000000000000000000000000000000000000815260040161226890614b7a565b60405180910390fd5b611b588111156122b6576040517f08c379a00000000000000000000000000000000000000000000000000000000081526004016122ad90614c0c565b60405180910390fd5b6122bf82610d0e565b341015612301576040517f08c379a00000000000000000000000000000000000000000000000000000000081526004016122f890614d50565b60405180910390fd5b60005b8281101561237f576001600f60003373ffffffffffffffffffffffffffffffffffffffff1673ffffffffffffffffffffffffffffffffffffffff168152602001908152602001600020600082825461235c9190614642565b9250508190555061236c33612c6f565b808061237790614704565b915050612304565b5061239161238b6117df565b47612d97565b5050565b601280546123a29061432d565b80601f01602080910402602001604051908101604052809291908181526020018280546123ce9061432d565b801561241b5780601f106123f05761010080835404028352916020019161241b565b820191906000526020600020905b8154815290600101906020018083116123fe57829003601f168201915b505050505081565b600581565b600c5481565b6000600560008473ffffffffffffffffffffffffffffffffffffffff1673ffffffffffffffffffffffffffffffffffffffff16815260200190815260200160002060008373ffffffffffffffffffffffffffffffffffffffff1673ffffffffffffffffffffffffffffffffffffffff16815260200190815260200160002060009054906101000a900460ff16905092915050565b600d60009054906101000a900460ff1681565b60006124f28267011c37937e08000061291f90919063ffffffff16565b9050919050565b61250161285e565b73ffffffffffffffffffffffffffffffffffffffff1661251f6117df565b73ffffffffffffffffffffffffffffffffffffffff1614612575576040517f08c379a000000000000000000000000000000000000000000000000000000000815260040161256c906145f3565b60405180910390fd5b600073ffffffffffffffffffffffffffffffffffffffff168173ffffffffffffffffffffffffffffffffffffffff1614156125e5576040517f08c379a00000000000000000000000000000000000000000000000000000000081526004016125dc906150fd565b60405180910390fd5b6125ee81612cd1565b50565b6125f961285e565b73ffffffffffffffffffffffffffffffffffffffff166126176117df565b73ffffffffffffffffffffffffffffffffffffffff161461266d576040517f08c379a0000000000000000000000000000000000000000000000000000000008152600401612664906145f3565b60405180910390fd5b80600d60006101000a81548160ff02191690831515021790555050565b61269261285e565b73ffffffffffffffffffffffffffffffffffffffff166126b06117df565b73ffffffffffffffffffffffffffffffffffffffff1614612706576040517f08c379a00000000000000000000000000000000000000000000000000000000081526004016126fd906145f3565b60405180910390fd5b8060118190555050565b60007f80ac58cd000000000000000000000000000000000000000000000000000000007bffffffffffffffffffffffffffffffffffffffffffffffffffffffff1916827bffffffffffffffffffffffffffffffffffffffffffffffffffffffff191614806127db57507f5b5e139f000000000000000000000000000000000000000000000000000000007bffffffffffffffffffffffffffffffffffffffffffffffffffffffff1916827bffffffffffffffffffffffffffffffffffffffffffffffffffffffff1916145b806127eb57506127ea82613059565b5b9050919050565b60008073ffffffffffffffffffffffffffffffffffffffff166002600084815260200190815260200160002060009054906101000a900473ffffffffffffffffffffffffffffffffffffffff1673ffffffffffffffffffffffffffffffffffffffff1614159050919050565b600033905090565b816004600083815260200190815260200160002060006101000a81548173ffffffffffffffffffffffffffffffffffffffff021916908373ffffffffffffffffffffffffffffffffffffffff160217905550808273ffffffffffffffffffffffffffffffffffffffff166128d98361129f565b73ffffffffffffffffffffffffffffffffffffffff167f8c5be1e5ebec7d5bd14f71427d1e84f3dd0314c0f7b2291e5b200ac8c7c3b92560405160405180910390a45050565b6000818361292d919061511d565b905092915050565b6000612940826127f2565b61297f576040517f08c379a0000000000000000000000000000000000000000000000000000000008152600401612976906151e9565b60405180910390fd5b600061298a8361129f565b90508073ffffffffffffffffffffffffffffffffffffffff168473ffffffffffffffffffffffffffffffffffffffff1614806129f957508373ffffffffffffffffffffffffffffffffffffffff166129e184610b64565b73ffffffffffffffffffffffffffffffffffffffff16145b80612a0a5750612a09818561242e565b5b91505092915050565b8273ffffffffffffffffffffffffffffffffffffffff16612a338261129f565b73ffffffffffffffffffffffffffffffffffffffff1614612a89576040517f08c379a0000000000000000000000000000000000000000000000000000000008152600401612a809061527b565b60405180910390fd5b600073ffffffffffffffffffffffffffffffffffffffff168273ffffffffffffffffffffffffffffffffffffffff161415612af9576040517f08c379a0000000000000000000000000000000000000000000000000000000008152600401612af09061530d565b60405180910390fd5b612b048383836130c3565b612b0f600082612866565b6001600360008573ffffffffffffffffffffffffffffffffffffffff1673ffffffffffffffffffffffffffffffffffffffff1681526020019081526020016000206000828254612b5f919061532d565b925050819055506001600360008473ffffffffffffffffffffffffffffffffffffffff1673ffffffffffffffffffffffffffffffffffffffff1681526020019081526020016000206000828254612bb69190614642565b92505081905550816002600083815260200190815260200160002060006101000a81548173ffffffffffffffffffffffffffffffffffffffff021916908373ffffffffffffffffffffffffffffffffffffffff160217905550808273ffffffffffffffffffffffffffffffffffffffff168473ffffffffffffffffffffffffffffffffffffffff167fddf252ad1be2c89b69c2b068fc378daa952ba7f163c4a11628f55a4df523b3ef60405160405180910390a4505050565b6000612c79612cc0565b9050612c85600b6131d7565b612c8f82826131ed565b807f9e62c5dba1161e03d55b0b7b6cd3d7871c9fdd11f86700bd61314d7f9831e5ad60405160405180910390a25050565b6000612ccc600b61320b565b905090565b6000600a60009054906101000a900473ffffffffffffffffffffffffffffffffffffffff16905081600a60006101000a81548173ffffffffffffffffffffffffffffffffffffffff021916908373ffffffffffffffffffffffffffffffffffffffff1602179055508173ffffffffffffffffffffffffffffffffffffffff168173ffffffffffffffffffffffffffffffffffffffff167f8be0079c531659141344cd1fd0a4f28419497f9722a3daafe3b4186f6b6457e060405160405180910390a35050565b8173ffffffffffffffffffffffffffffffffffffffff166108fc829081150290604051600060405180830381858888f19350505050158015612ddd573d6000803e3d6000fd5b505050565b612ded848484612a13565b612df984848484613219565b612e38576040517f08c379a0000000000000000000000000000000000000000000000000000000008152600401612e2f906153d3565b60405180910390fd5b50505050565b606060128054612e4d9061432d565b80601f0160208091040260200160405190810160405280929190818152602001828054612e799061432d565b8015612ec65780601f10612e9b57610100808354040283529160200191612ec6565b820191906000526020600020905b815481529060010190602001808311612ea957829003601f168201915b5050505050905090565b60606000821415612f18576040518060400160405280600181526020017f30000000000000000000000000000000000000000000000000000000000000008152509050613054565b600082905060005b60008214612f4a578080612f3390614704565b915050600a82612f439190615422565b9150612f20565b60008167ffffffffffffffff811115612f6657612f65613dd4565b5b6040519080825280601f01601f191660200182016040528015612f985781602001600182028036833780820191505090505b50905060008290505b6000861461304c57600181612fb6919061532d565b90506000600a8088612fc89190615422565b612fd2919061511d565b87612fdd919061532d565b6030612fe99190615460565b905060008160f81b905080848481518110613007576130066147df565b5b60200101907effffffffffffffffffffffffffffffffffffffffffffffffffffffffffffff1916908160001a905350600a886130439190615422565b97505050612fa1565b819450505050505b919050565b60007f01ffc9a7000000000000000000000000000000000000000000000000000000007bffffffffffffffffffffffffffffffffffffffffffffffffffffffff1916827bffffffffffffffffffffffffffffffffffffffffffffffffffffffff1916149050919050565b6130ce8383836133a1565b600073ffffffffffffffffffffffffffffffffffffffff168373ffffffffffffffffffffffffffffffffffffffff1614156131115761310c816133a6565b613150565b8173ffffffffffffffffffffffffffffffffffffffff168373ffffffffffffffffffffffffffffffffffffffff161461314f5761314e83826133ef565b5b5b600073ffffffffffffffffffffffffffffffffffffffff168273ffffffffffffffffffffffffffffffffffffffff1614156131935761318e8161355c565b6131d2565b8273ffffffffffffffffffffffffffffffffffffffff168273ffffffffffffffffffffffffffffffffffffffff16146131d1576131d0828261362d565b5b5b505050565b6001816000016000828254019250508190555050565b6132078282604051806020016040528060008152506136ac565b5050565b600081600001549050919050565b600061323a8473ffffffffffffffffffffffffffffffffffffffff16613707565b15613394578373ffffffffffffffffffffffffffffffffffffffff1663150b7a0261326361285e565b8786866040518563ffffffff1660e01b815260040161328594939291906154ec565b6020604051808303816000875af19250505080156132c157506040513d601f19601f820116820180604052508101906132be919061554d565b60015b613344573d80600081146132f1576040519150601f19603f3d011682016040523d82523d6000602084013e6132f6565b606091505b5060008151141561333c576040517f08c379a0000000000000000000000000000000000000000000000000000000008152600401613333906153d3565b60405180910390fd5b805181602001fd5b63150b7a0260e01b7bffffffffffffffffffffffffffffffffffffffffffffffffffffffff1916817bffffffffffffffffffffffffffffffffffffffffffffffffffffffff191614915050613399565b600190505b949350505050565b505050565b6008805490506009600083815260200190815260200160002081905550600881908060018154018082558091505060019003906000526020600020016000909190919091505550565b600060016133fc84611351565b613406919061532d565b90506000600760008481526020019081526020016000205490508181146134eb576000600660008673ffffffffffffffffffffffffffffffffffffffff1673ffffffffffffffffffffffffffffffffffffffff168152602001908152602001600020600084815260200190815260200160002054905080600660008773ffffffffffffffffffffffffffffffffffffffff1673ffffffffffffffffffffffffffffffffffffffff168152602001908152602001600020600084815260200190815260200160002081905550816007600083815260200190815260200160002081905550505b6007600084815260200190815260200160002060009055600660008573ffffffffffffffffffffffffffffffffffffffff1673ffffffffffffffffffffffffffffffffffffffff16815260200190815260200160002060008381526020019081526020016000206000905550505050565b60006001600880549050613570919061532d565b90506000600960008481526020019081526020016000205490506000600883815481106135a05761359f6147df565b5b9060005260206000200154905080600883815481106135c2576135c16147df565b5b9060005260206000200181905550816009600083815260200190815260200160002081905550600960008581526020019081526020016000206000905560088054806136115761361061557a565b5b6001900381819060005260206000200160009055905550505050565b600061363883611351565b905081600660008573ffffffffffffffffffffffffffffffffffffffff1673ffffffffffffffffffffffffffffffffffffffff168152602001908152602001600020600083815260200190815260200160002081905550806007600084815260200190815260200160002081905550505050565b6136b6838361371a565b6136c36000848484613219565b613702576040517f08c379a00000000000000000000000000000000000000000000000000000000081526004016136f9906153d3565b60405180910390fd5b505050565b600080823b905060008111915050919050565b600073ffffffffffffffffffffffffffffffffffffffff168273ffffffffffffffffffffffffffffffffffffffff16141561378a576040517f08c379a0000000000000000000000000000000000000000000000000000000008152600401613781906155f5565b60405180910390fd5b613793816127f2565b156137d3576040517f08c379a00000000000000000000000000000000000000000000000000000000081526004016137ca90615661565b60405180910390fd5b6137df600083836130c3565b6001600360008473ffffffffffffffffffffffffffffffffffffffff1673ffffffffffffffffffffffffffffffffffffffff168152602001908152602001600020600082825461382f9190614642565b92505081905550816002600083815260200190815260200160002060006101000a81548173ffffffffffffffffffffffffffffffffffffffff021916908373ffffffffffffffffffffffffffffffffffffffff160217905550808273ffffffffffffffffffffffffffffffffffffffff16600073ffffffffffffffffffffffffffffffffffffffff167fddf252ad1be2c89b69c2b068fc378daa952ba7f163c4a11628f55a4df523b3ef60405160405180910390a45050565b8280546138f49061432d565b90600052602060002090601f016020900481019282613916576000855561395d565b82601f1061392f57805160ff191683800117855561395d565b8280016001018555821561395d579182015b8281111561395c578251825591602001919060010190613941565b5b50905061396a919061396e565b5090565b5b8082111561398757600081600090555060010161396f565b5090565b6000604051905090565b600080fd5b600080fd5b60007fffffffff0000000000000000000000000000000000000000000000000000000082169050919050565b6139d48161399f565b81146139df57600080fd5b50565b6000813590506139f1816139cb565b92915050565b600060208284031215613a0d57613a0c613995565b5b6000613a1b848285016139e2565b91505092915050565b60008115159050919050565b613a3981613a24565b82525050565b6000602082019050613a546000830184613a30565b92915050565b600081519050919050565b600082825260208201905092915050565b60005b83811015613a94578082015181840152602081019050613a79565b83811115613aa3576000848401525b50505050565b6000601f19601f8301169050919050565b6000613ac582613a5a565b613acf8185613a65565b9350613adf818560208601613a76565b613ae881613aa9565b840191505092915050565b60006020820190508181036000830152613b0d8184613aba565b905092915050565b6000819050919050565b613b2881613b15565b8114613b3357600080fd5b50565b600081359050613b4581613b1f565b92915050565b600060208284031215613b6157613b60613995565b5b6000613b6f84828501613b36565b91505092915050565b600073ffffffffffffffffffffffffffffffffffffffff82169050919050565b6000613ba382613b78565b9050919050565b613bb381613b98565b82525050565b6000602082019050613bce6000830184613baa565b92915050565b613bdd81613b98565b8114613be857600080fd5b50565b600081359050613bfa81613bd4565b92915050565b60008060408385031215613c1757613c16613995565b5b6000613c2585828601613beb565b9250506020613c3685828601613b36565b9150509250929050565b613c4981613b15565b82525050565b6000602082019050613c646000830184613c40565b92915050565b600080600060608486031215613c8357613c82613995565b5b6000613c9186828701613beb565b9350506020613ca286828701613beb565b9250506040613cb386828701613b36565b9150509250925092565b600060208284031215613cd357613cd2613995565b5b6000613ce184828501613beb565b91505092915050565b600081519050919050565b600082825260208201905092915050565b6000819050602082019050919050565b613d1f81613b15565b82525050565b6000613d318383613d16565b60208301905092915050565b6000602082019050919050565b6000613d5582613cea565b613d5f8185613cf5565b9350613d6a83613d06565b8060005b83811015613d9b578151613d828882613d25565b9750613d8d83613d3d565b925050600181019050613d6e565b5085935050505092915050565b60006020820190508181036000830152613dc28184613d4a565b905092915050565b600080fd5b600080fd5b7f4e487b7100000000000000000000000000000000000000000000000000000000600052604160045260246000fd5b613e0c82613aa9565b810181811067ffffffffffffffff82111715613e2b57613e2a613dd4565b5b80604052505050565b6000613e3e61398b565b9050613e4a8282613e03565b919050565b600067ffffffffffffffff821115613e6a57613e69613dd4565b5b613e7382613aa9565b9050602081019050919050565b82818337600083830152505050565b6000613ea2613e9d84613e4f565b613e34565b905082815260208101848484011115613ebe57613ebd613dcf565b5b613ec9848285613e80565b509392505050565b600082601f830112613ee657613ee5613dca565b5b8135613ef6848260208601613e8f565b91505092915050565b600060208284031215613f1557613f14613995565b5b600082013567ffffffffffffffff811115613f3357613f3261399a565b5b613f3f84828501613ed1565b91505092915050565b600067ffffffffffffffff821115613f6357613f62613dd4565b5b602082029050602081019050919050565b600080fd5b6000613f8c613f8784613f48565b613e34565b90508083825260208201905060208402830185811115613faf57613fae613f74565b5b835b81811015613fd85780613fc48882613beb565b845260208401935050602081019050613fb1565b5050509392505050565b600082601f830112613ff757613ff6613dca565b5b8135614007848260208601613f79565b91505092915050565b60006020828403121561402657614025613995565b5b600082013567ffffffffffffffff8111156140445761404361399a565b5b61405084828501613fe2565b91505092915050565b600080fd5b60008083601f84011261407457614073613dca565b5b8235905067ffffffffffffffff81111561409157614090614059565b5b6020830191508360208202830111156140ad576140ac613f74565b5b9250929050565b600080602083850312156140cb576140ca613995565b5b600083013567ffffffffffffffff8111156140e9576140e861399a565b5b6140f58582860161405e565b92509250509250929050565b61410a81613a24565b811461411557600080fd5b50565b60008135905061412781614101565b92915050565b6000806040838503121561414457614143613995565b5b600061415285828601613beb565b925050602061416385828601614118565b9150509250929050565b600067ffffffffffffffff82111561418857614187613dd4565b5b61419182613aa9565b9050602081019050919050565b60006141b16141ac8461416d565b613e34565b9050828152602081018484840111156141cd576141cc613dcf565b5b6141d8848285613e80565b509392505050565b600082601f8301126141f5576141f4613dca565b5b813561420584826020860161419e565b91505092915050565b6000806000806080858703121561422857614227613995565b5b600061423687828801613beb565b945050602061424787828801613beb565b935050604061425887828801613b36565b925050606085013567ffffffffffffffff8111156142795761427861399a565b5b614285878288016141e0565b91505092959194509250565b600080604083850312156142a8576142a7613995565b5b60006142b685828601613beb565b92505060206142c785828601613beb565b9150509250929050565b6000602082840312156142e7576142e6613995565b5b60006142f584828501614118565b91505092915050565b7f4e487b7100000000000000000000000000000000000000000000000000000000600052602260045260246000fd5b6000600282049050600182168061434557607f821691505b60208210811415614359576143586142fe565b5b50919050565b7f4552433732313a20617070726f76656420717565727920666f72206e6f6e657860008201527f697374656e7420746f6b656e0000000000000000000000000000000000000000602082015250565b60006143bb602c83613a65565b91506143c68261435f565b604082019050919050565b600060208201905081810360008301526143ea816143ae565b9050919050565b7f4552433732313a20617070726f76616c20746f2063757272656e74206f776e6560008201527f7200000000000000000000000000000000000000000000000000000000000000602082015250565b600061444d602183613a65565b9150614458826143f1565b604082019050919050565b6000602082019050818103600083015261447c81614440565b9050919050565b7f4552433732313a20617070726f76652063616c6c6572206973206e6f74206f7760008201527f6e6572206e6f7220617070726f76656420666f7220616c6c0000000000000000602082015250565b60006144df603883613a65565b91506144ea82614483565b604082019050919050565b6000602082019050818103600083015261450e816144d2565b9050919050565b7f4552433732313a207472616e736665722063616c6c6572206973206e6f74206f60008201527f776e6572206e6f7220617070726f766564000000000000000000000000000000602082015250565b6000614571603183613a65565b915061457c82614515565b604082019050919050565b600060208201905081810360008301526145a081614564565b9050919050565b7f4f776e61626c653a2063616c6c6572206973206e6f7420746865206f776e6572600082015250565b60006145dd602083613a65565b91506145e8826145a7565b602082019050919050565b6000602082019050818103600083015261460c816145d0565b9050919050565b7f4e487b7100000000000000000000000000000000000000000000000000000000600052601160045260246000fd5b600061464d82613b15565b915061465883613b15565b9250827fffffffffffffffffffffffffffffffffffffffffffffffffffffffffffffffff0382111561468d5761468c614613565b5b828201905092915050565b7f4d61782072657365727665206578636565646564000000000000000000000000600082015250565b60006146ce601483613a65565b91506146d982614698565b602082019050919050565b600060208201905081810360008301526146fd816146c1565b9050919050565b600061470f82613b15565b91507fffffffffffffffffffffffffffffffffffffffffffffffffffffffffffffffff82141561474257614741614613565b5b600182019050919050565b7f455243373231456e756d657261626c653a206f776e657220696e646578206f7560008201527f74206f6620626f756e6473000000000000000000000000000000000000000000602082015250565b60006147a9602b83613a65565b91506147b48261474d565b604082019050919050565b600060208201905081810360008301526147d88161479c565b9050919050565b7f4e487b7100000000000000000000000000000000000000000000000000000000600052603260045260246000fd5b7f455243373231456e756d657261626c653a20676c6f62616c20696e646578206f60008201527f7574206f6620626f756e64730000000000000000000000000000000000000000602082015250565b600061486a602c83613a65565b91506148758261480e565b604082019050919050565b600060208201905081810360008301526148998161485d565b9050919050565b7f506c656173652070726f7669646520746865206c697374206f662077616c6c6560008201527f747320666f72207468652061697264726f700000000000000000000000000000602082015250565b60006148fc603283613a65565b9150614907826148a0565b604082019050919050565b6000602082019050818103600083015261492b816148ef565b9050919050565b7f4552433732313a206f776e657220717565727920666f72206e6f6e657869737460008201527f656e7420746f6b656e0000000000000000000000000000000000000000000000602082015250565b600061498e602983613a65565b915061499982614932565b604082019050919050565b600060208201905081810360008301526149bd81614981565b9050919050565b7f4552433732313a2062616c616e636520717565727920666f7220746865207a6560008201527f726f206164647265737300000000000000000000000000000000000000000000602082015250565b6000614a20602a83613a65565b9150614a2b826149c4565b604082019050919050565b60006020820190508181036000830152614a4f81614a13565b9050919050565b7f4e756c6c206164647265737320666f756e640000000000000000000000000000600082015250565b6000614a8c601283613a65565b9150614a9782614a56565b602082019050919050565b60006020820190508181036000830152614abb81614a7f565b9050919050565b7f53616c65206973206e6f74206f70656e00000000000000000000000000000000600082015250565b6000614af8601083613a65565b9150614b0382614ac2565b602082019050919050565b60006020820190508181036000830152614b2781614aeb565b9050919050565b7f4d6178206c696d69740000000000000000000000000000000000000000000000600082015250565b6000614b64600983613a65565b9150614b6f82614b2e565b602082019050919050565b60006020820190508181036000830152614b9381614b57565b9050919050565b7f416c6c2068696265726e6174696f6e2062656172732061726520736f6c64206f60008201527f7574000000000000000000000000000000000000000000000000000000000000602082015250565b6000614bf6602283613a65565b9150614c0182614b9a565b604082019050919050565b60006020820190508181036000830152614c2581614be9565b9050919050565b7f45786365656473206e756d626572000000000000000000000000000000000000600082015250565b6000614c62600e83613a65565b9150614c6d82614c2c565b602082019050919050565b60006020820190508181036000830152614c9181614c55565b9050919050565b7f45786365656473204e4654277320616c6c6f776564207065722077616c6c6574600082015250565b6000614cce602083613a65565b9150614cd982614c98565b602082019050919050565b60006020820190508181036000830152614cfd81614cc1565b9050919050565b7f56616c75652062656c6f77207072696365000000000000000000000000000000600082015250565b6000614d3a601183613a65565b9150614d4582614d04565b602082019050919050565b60006020820190508181036000830152614d6981614d2d565b9050919050565b7f4552433732313a20617070726f766520746f2063616c6c657200000000000000600082015250565b6000614da6601983613a65565b9150614db182614d70565b602082019050919050565b60006020820190508181036000830152614dd581614d99565b9050919050565b7f4552433732314d657461646174613a2055524920717565727920666f72206e6f60008201527f6e6578697374656e7420746f6b656e0000000000000000000000000000000000602082015250565b6000614e38602f83613a65565b9150614e4382614ddc565b604082019050919050565b60006020820190508181036000830152614e6781614e2b565b9050919050565b600081905092915050565b6000614e8482613a5a565b614e8e8185614e6e565b9350614e9e818560208601613a76565b80840191505092915050565b6000614eb68286614e79565b9150614ec28285614e79565b9150614ece8284614e79565b9150819050949350505050565b7f50726573616c65206973206e6f74206f70656e00000000000000000000000000600082015250565b6000614f11601383613a65565b9150614f1c82614edb565b602082019050919050565b60006020820190508181036000830152614f4081614f04565b9050919050565b7f596f7520617265206e6f7420696e2077686974656c6973740000000000000000600082015250565b6000614f7d601883613a65565b9150614f8882614f47565b602082019050919050565b60006020820190508181036000830152614fac81614f70565b9050919050565b7f496e636f727265637420616d6f756e7420746f20636c61696d00000000000000600082015250565b6000614fe9601983613a65565b9150614ff482614fb3565b602082019050919050565b6000602082019050818103600083015261501881614fdc565b9050919050565b7f50757263686173652065786365656473206d617820616c6c6f77656400000000600082015250565b6000615055601c83613a65565b91506150608261501f565b602082019050919050565b6000602082019050818103600083015261508481615048565b9050919050565b7f4f776e61626c653a206e6577206f776e657220697320746865207a65726f206160008201527f6464726573730000000000000000000000000000000000000000000000000000602082015250565b60006150e7602683613a65565b91506150f28261508b565b604082019050919050565b60006020820190508181036000830152615116816150da565b9050919050565b600061512882613b15565b915061513383613b15565b9250817fffffffffffffffffffffffffffffffffffffffffffffffffffffffffffffffff048311821515161561516c5761516b614613565b5b828202905092915050565b7f4552433732313a206f70657261746f7220717565727920666f72206e6f6e657860008201527f697374656e7420746f6b656e0000000000000000000000000000000000000000602082015250565b60006151d3602c83613a65565b91506151de82615177565b604082019050919050565b60006020820190508181036000830152615202816151c6565b9050919050565b7f4552433732313a207472616e73666572206f6620746f6b656e2074686174206960008201527f73206e6f74206f776e0000000000000000000000000000000000000000000000602082015250565b6000615265602983613a65565b915061527082615209565b604082019050919050565b6000602082019050818103600083015261529481615258565b9050919050565b7f4552433732313a207472616e7366657220746f20746865207a65726f2061646460008201527f7265737300000000000000000000000000000000000000000000000000000000602082015250565b60006152f7602483613a65565b91506153028261529b565b604082019050919050565b60006020820190508181036000830152615326816152ea565b9050919050565b600061533882613b15565b915061534383613b15565b92508282101561535657615355614613565b5b828203905092915050565b7f4552433732313a207472616e7366657220746f206e6f6e20455243373231526560008201527f63656976657220696d706c656d656e7465720000000000000000000000000000602082015250565b60006153bd603283613a65565b91506153c882615361565b604082019050919050565b600060208201905081810360008301526153ec816153b0565b9050919050565b7f4e487b7100000000000000000000000000000000000000000000000000000000600052601260045260246000fd5b600061542d82613b15565b915061543883613b15565b925082615448576154476153f3565b5b828204905092915050565b600060ff82169050919050565b600061546b82615453565b915061547683615453565b92508260ff0382111561548c5761548b614613565b5b828201905092915050565b600081519050919050565b600082825260208201905092915050565b60006154be82615497565b6154c881856154a2565b93506154d8818560208601613a76565b6154e181613aa9565b840191505092915050565b60006080820190506155016000830187613baa565b61550e6020830186613baa565b61551b6040830185613c40565b818103606083015261552d81846154b3565b905095945050505050565b600081519050615547816139cb565b92915050565b60006020828403121561556357615562613995565b5b600061557184828501615538565b91505092915050565b7f4e487b7100000000000000000000000000000000000000000000000000000000600052603160045260246000fd5b7f4552433732313a206d696e7420746f20746865207a65726f2061646472657373600082015250565b60006155df602083613a65565b91506155ea826155a9565b602082019050919050565b6000602082019050818103600083015261560e816155d2565b9050919050565b7f4552433732313a20746f6b656e20616c7265616479206d696e74656400000000600082015250565b600061564b601c83613a65565b915061565682615615565b602082019050919050565b6000602082019050818103600083015261567a8161563e565b905091905056fea26469706673582212205f7b71a19d33aa1d30f4c84942b9a6dcd96af7ccb14ba5f9edc6a1a55251238064736f6c634300080a0033",
  "immutableReferences": {},
  "source": "// SPDX-License-Identifier: MIT\r\npragma solidity ^0.8.0;\r\n\r\nimport \"@openzeppelin/contracts/token/ERC721/ERC721.sol\";\r\nimport \"@openzeppelin/contracts/token/ERC721/extensions/ERC721Enumerable.sol\";\r\nimport \"@openzeppelin/contracts/access/Ownable.sol\";\r\nimport \"@openzeppelin/contracts/utils/math/SafeMath.sol\";\r\nimport \"@openzeppelin/contracts/utils/Counters.sol\";\r\n\r\ncontract HibernationSociety is ERC721Enumerable, Ownable {\r\n    using SafeMath for uint256;\r\n    using Counters for Counters.Counter;\r\n\r\n    Counters.Counter private _tokenIdTracker;\r\n\r\n    uint256 public constant MAX_ELEMENTS = 7000;\r\n    uint256 public constant PRICE = 80 * 10**15; // 80 Matic\r\n    uint256 public constant PRESALE_PRICE = 65 * 10**15;\r\n    uint256 public constant MAX_BY_MINT = 5;\r\n    uint256 public constant MAX_BY_MINT_WHITELIST = 5;\r\n    uint256 public constant MAX_RESERVE_COUNT = 200;\r\n    uint256 public constant MAX_WALLET = 5;\r\n    uint256 public  LAUNCH_TIMESTAMP = 1643367600; // Thu Sep 23 2021 00:00:00 GMT+0000\r\n\r\n    bool public isPresaleOpen = false;\r\n\r\n    mapping(address => bool) private _whiteList;\r\n    mapping(address => uint256) private _whiteListClaimed;\r\n    uint256 private _reservedCount = 0;\r\n    uint256 private _reserveAtATime = 40;\r\n\r\n    string public baseTokenURI;\r\n\r\n    event CreateHibernationBear(uint256 indexed id);\r\n\r\n    constructor(string memory baseURI) ERC721(\"Hibernation Society\", \"HBNS\") {\r\n        setBaseURI(baseURI);\r\n    }\r\n\r\n    modifier saleIsOpen {\r\n        if (_msgSender() != owner()) {\r\n            require(block.timestamp >= LAUNCH_TIMESTAMP, \"Sale is not open\");\r\n        }\r\n        _;\r\n    }\r\n\r\n    function _totalSupply() internal view returns (uint) {\r\n        return _tokenIdTracker.current();\r\n    }\r\n\r\n    function totalMint() public view returns (uint256) {\r\n        return _totalSupply();\r\n    }\r\n\r\n    function reserveTokens() public onlyOwner {\r\n        require(_reservedCount + _reserveAtATime <= MAX_RESERVE_COUNT, \"Max reserve exceeded\");\r\n        uint256 i;\r\n        for (i = 0; i < _reserveAtATime; i++) {\r\n            _reservedCount++;\r\n            _mintAnElement(msg.sender);\r\n        }\r\n    }\r\n\r\n    function mint(uint256 _count) public payable saleIsOpen {\r\n        uint256 total = _totalSupply();\r\n        require(total + _count <= MAX_ELEMENTS, \"Max limit\");\r\n        require(total <= MAX_ELEMENTS, \"All hibernation bears are sold out\");\r\n        require(_count <= MAX_BY_MINT, \"Exceeds number\");\r\n        require(balanceOf(_msgSender())+ _count <= MAX_WALLET, \"Exceeds NFT's allowed per wallet\");\r\n        require(msg.value >= salePrice(_count), \"Value below price\");\r\n\r\n        for (uint256 i = 0; i < _count; i++) {\r\n            _mintAnElement(_msgSender());\r\n        }\r\n        _withdraw(owner(), address(this).balance);\r\n    }\r\n\r\n    function presaleMint(uint256 _count) public payable {\r\n        require(isPresaleOpen, \"Presale is not open\");\r\n        require(_whiteList[msg.sender], \"You are not in whitelist\");\r\n        require(_count <= MAX_BY_MINT_WHITELIST, \"Incorrect amount to claim\");\r\n        require(_whiteListClaimed[msg.sender] + _count <= MAX_BY_MINT_WHITELIST, \"Purchase exceeds max allowed\");\r\n        require(balanceOf(_msgSender())+ _count <= MAX_WALLET, \"Exceeds NFT's allowed per wallet\");\r\n        uint256 total = _totalSupply();\r\n        require(total + _count <= MAX_ELEMENTS, \"Max limit\");\r\n        require(total <= MAX_ELEMENTS, \"All hibernation bears are sold out\");\r\n        require(msg.value >= presalePrice(_count), \"Value below price\");\r\n\r\n        for (uint256 i = 0; i < _count; i++) {\r\n            _whiteListClaimed[msg.sender] += 1;\r\n            _mintAnElement(msg.sender);\r\n        }\r\n        _withdraw(owner(), address(this).balance);\r\n    }\r\n\r\n    function airdropNFT(address[] memory winners) public onlyOwner{\r\n        require(winners.length > 0 , \"Please provide the list of wallets for the airdrop\");\r\n        for(uint256 i = 0; i < winners.length; i++){\r\n            _mintAnElement(winners[i]);\r\n        }\r\n    }\r\n\r\n    function _mintAnElement(address _to) private {\r\n        uint id = _totalSupply();\r\n        _tokenIdTracker.increment();\r\n        _safeMint(_to, id);\r\n        emit CreateHibernationBear(id);\r\n    }\r\n\r\n    function salePrice(uint256 _count) public pure returns (uint256) {\r\n        return PRICE.mul(_count);\r\n    }\r\n\r\n    function presalePrice(uint256 _count) public pure returns (uint256) {\r\n        return PRESALE_PRICE.mul(_count);\r\n    }\r\n\r\n\r\n    function _baseURI() internal view virtual override returns (string memory) {\r\n        return baseTokenURI;\r\n    }\r\n\r\n    function setBaseURI(string memory baseURI) public onlyOwner {\r\n        baseTokenURI = baseURI;\r\n    }\r\n\r\n    function tokenURI(uint256 tokenId)\r\n        public\r\n        view\r\n        virtual\r\n        override\r\n        returns (string memory)\r\n    {\r\n        require(\r\n            _exists(tokenId),\r\n            \"ERC721Metadata: URI query for nonexistent token\"\r\n        );\r\n\r\n        uint256 metaId = tokenId;\r\n        string memory uriSuffix = \".json\";\r\n        string memory currentBaseURI = _baseURI();\r\n        return\r\n            bytes(currentBaseURI).length > 0\r\n                ? string(abi.encodePacked(currentBaseURI,uint2str(metaId), uriSuffix ))\r\n                : \"\";\r\n    }\r\n\r\n    function walletOfOwner(address _owner) external view returns (uint256[] memory) {\r\n        uint256 tokenCount = balanceOf(_owner);\r\n\r\n        uint256[] memory tokensId = new uint256[](tokenCount);\r\n        for (uint256 i = 0; i < tokenCount; i++) {\r\n            tokensId[i] = tokenOfOwnerByIndex(_owner, i);\r\n        }\r\n\r\n        return tokensId;\r\n    }\r\n\r\n    function setPresaleOpen(bool _isPresaleOpen) external onlyOwner {\r\n        isPresaleOpen = _isPresaleOpen;\r\n    }\r\n\r\n    function addToWhiteList(address[] calldata addresses) external onlyOwner {\r\n        for (uint256 i = 0; i < addresses.length; i++) {\r\n            require(addresses[i] != address(0), \"Null address found\");\r\n\r\n            _whiteList[addresses[i]] = true;\r\n            _whiteListClaimed[addresses[i]] > 0 ? _whiteListClaimed[addresses[i]] : 0;\r\n        }\r\n    }\r\n\r\n    function addressInWhitelist(address addr) external view returns (bool) {\r\n        return _whiteList[addr];\r\n    }\r\n\r\n    function removeFromWhiteList(address[] calldata addresses) external onlyOwner {\r\n        for (uint256 i = 0; i < addresses.length; i++) {\r\n            require(addresses[i] != address(0), \"Null address found\");\r\n\r\n            _whiteList[addresses[i]] = false;\r\n        }\r\n    }\r\n\r\n    function setReserveAtATime(uint256 _count) public onlyOwner {\r\n        _reserveAtATime = _count;\r\n    }\r\n\r\n    function withdrawAll() external onlyOwner {\r\n        uint256 balance = address(this).balance;\r\n        require(balance > 0);\r\n        _withdraw(owner(), balance);\r\n    }\r\n\r\n    function _withdraw(address _address, uint256 _amount) private {\r\n        payable(_address).transfer(_amount);\r\n    }\r\n\r\n    function uint2str(uint _i) internal pure returns (string memory _uintAsString) {\r\n        if (_i == 0) {\r\n            return \"0\";\r\n        }\r\n        uint j = _i;\r\n        uint len;\r\n        while (j != 0) {\r\n            len++;\r\n            j /= 10;\r\n        }\r\n        bytes memory bstr = new bytes(len);\r\n        uint k = len;\r\n        while (_i != 0) {\r\n            k = k-1;\r\n            uint8 temp = (48 + uint8(_i - _i / 10 * 10));\r\n            bytes1 b1 = bytes1(temp);\r\n            bstr[k] = b1;\r\n            _i /= 10;\r\n        }\r\n        return string(bstr);\r\n    }\r\n\r\n    //test methods\r\n    function setTestLaunchTime() external onlyOwner {\r\n        LAUNCH_TIMESTAMP = block.timestamp + 30;\r\n    }\r\n}",
  "sourcePath": "C:\\git\\freelance\\tokens\\contracts\\HibernationSociety.sol",
  "compiler": {
    "name": "solc",
    "version": "0.8.10+commit.fc410830.Emscripten.clang"
  },
  "schemaVersion": "3.4.3",
  "updatedAt": "2022-01-14T09:05:15.058Z",
  "networkType": "ethereum",
  "devdoc": {
    "kind": "dev",
    "methods": {
      "approve(address,uint256)": {
        "details": "See {IERC721-approve}."
      },
      "balanceOf(address)": {
        "details": "See {IERC721-balanceOf}."
      },
      "getApproved(uint256)": {
        "details": "See {IERC721-getApproved}."
      },
      "isApprovedForAll(address,address)": {
        "details": "See {IERC721-isApprovedForAll}."
      },
      "name()": {
        "details": "See {IERC721Metadata-name}."
      },
      "owner()": {
        "details": "Returns the address of the current owner."
      },
      "ownerOf(uint256)": {
        "details": "See {IERC721-ownerOf}."
      },
      "renounceOwnership()": {
        "details": "Leaves the contract without owner. It will not be possible to call `onlyOwner` functions anymore. Can only be called by the current owner. NOTE: Renouncing ownership will leave the contract without an owner, thereby removing any functionality that is only available to the owner."
      },
      "safeTransferFrom(address,address,uint256)": {
        "details": "See {IERC721-safeTransferFrom}."
      },
      "safeTransferFrom(address,address,uint256,bytes)": {
        "details": "See {IERC721-safeTransferFrom}."
      },
      "setApprovalForAll(address,bool)": {
        "details": "See {IERC721-setApprovalForAll}."
      },
      "supportsInterface(bytes4)": {
        "details": "See {IERC165-supportsInterface}."
      },
      "symbol()": {
        "details": "See {IERC721Metadata-symbol}."
      },
      "tokenByIndex(uint256)": {
        "details": "See {IERC721Enumerable-tokenByIndex}."
      },
      "tokenOfOwnerByIndex(address,uint256)": {
        "details": "See {IERC721Enumerable-tokenOfOwnerByIndex}."
      },
      "tokenURI(uint256)": {
        "details": "See {IERC721Metadata-tokenURI}."
      },
      "totalSupply()": {
        "details": "See {IERC721Enumerable-totalSupply}."
      },
      "transferFrom(address,address,uint256)": {
        "details": "See {IERC721-transferFrom}."
      },
      "transferOwnership(address)": {
        "details": "Transfers ownership of the contract to a new account (`newOwner`). Can only be called by the current owner."
      }
    },
    "version": 1
  },
  "userdoc": {
    "kind": "user",
    "methods": {},
    "version": 1
  }
}